{
  "_format": "hh-sol-artifact-1",
  "contractName": "IncreaseOrStay",
  "sourceName": "contracts/IncreaseOrStay.sol",
  "abi": [
    {
      "inputs": [
        {
          "internalType": "uint256",
          "name": "_defaultMinBet",
          "type": "uint256"
        }
      ],
      "stateMutability": "payable",
      "type": "constructor"
    },
    {
      "anonymous": false,
      "inputs": [
        {
          "indexed": false,
          "internalType": "uint256",
          "name": "gameId",
          "type": "uint256"
        }
      ],
      "name": "GameCreated",
      "type": "event"
    },
    {
      "inputs": [
        {
          "internalType": "uint256",
          "name": "gameId",
          "type": "uint256"
        }
      ],
      "name": "Withdraw",
      "outputs": [],
      "stateMutability": "nonpayable",
      "type": "function"
    },
    {
      "inputs": [],
      "name": "createGame",
      "outputs": [
        {
          "internalType": "uint256",
          "name": "",
          "type": "uint256"
        }
      ],
      "stateMutability": "payable",
      "type": "function"
    },
    {
      "inputs": [],
      "name": "defaultMinBet",
      "outputs": [
        {
          "internalType": "uint256",
          "name": "",
          "type": "uint256"
        }
      ],
      "stateMutability": "view",
      "type": "function"
    },
    {
      "inputs": [
        {
          "internalType": "uint256",
          "name": "",
          "type": "uint256"
        }
      ],
      "name": "games",
      "outputs": [
        {
          "internalType": "address payable",
          "name": "player",
          "type": "address"
        },
        {
          "internalType": "uint256",
          "name": "playerBet",
          "type": "uint256"
        },
        {
          "internalType": "uint256",
          "name": "reward",
          "type": "uint256"
        },
        {
          "internalType": "enum IncreaseOrStay.GameState",
          "name": "currentState",
          "type": "uint8"
        }
      ],
      "stateMutability": "view",
      "type": "function"
    },
    {
      "inputs": [],
      "name": "nextGameId",
      "outputs": [
        {
          "internalType": "uint256",
          "name": "",
          "type": "uint256"
        }
      ],
      "stateMutability": "view",
      "type": "function"
    },
    {
      "inputs": [],
      "name": "owner",
      "outputs": [
        {
          "internalType": "address payable",
          "name": "",
          "type": "address"
        }
      ],
      "stateMutability": "view",
      "type": "function"
    },
    {
      "inputs": [
        {
          "internalType": "uint256",
          "name": "amount",
          "type": "uint256"
        }
      ],
      "name": "ownerWithdraw",
      "outputs": [],
      "stateMutability": "nonpayable",
      "type": "function"
    },
    {
      "inputs": [
        {
          "internalType": "uint256",
          "name": "gameId",
          "type": "uint256"
        }
      ],
      "name": "playGame",
      "outputs": [],
      "stateMutability": "payable",
      "type": "function"
    },
    {
      "inputs": [
        {
          "internalType": "uint16",
          "name": "_nextGameId",
          "type": "uint16"
        }
      ],
      "name": "setNextGameId",
      "outputs": [],
      "stateMutability": "nonpayable",
      "type": "function"
    },
    {
      "inputs": [],
      "name": "unclaimedBalance",
      "outputs": [
        {
          "internalType": "int256",
          "name": "",
          "type": "int256"
        }
      ],
      "stateMutability": "view",
      "type": "function"
    },
    {
      "stateMutability": "payable",
      "type": "receive"
    }
  ],
  "bytecode": "0x6080604052600160045560405162001d5938038062001d5983398181016040528101906200002e919062000093565b336000806101000a81548173ffffffffffffffffffffffffffffffffffffffff021916908373ffffffffffffffffffffffffffffffffffffffff1602179055508060018190555050620000e3565b6000815190506200008d81620000c9565b92915050565b600060208284031215620000a657600080fd5b6000620000b6848285016200007c565b91505092915050565b6000819050919050565b620000d481620000bf565b8114620000e057600080fd5b50565b611c6680620000f36000396000f3fe6080604052600436106100955760003560e01c80635b6b431d116100595780635b6b431d146101935780637255d729146101bc5780638da5cb5b146101da57806396e1490814610205578063b135bbb014610230576100b5565b8063117a5b90146100ba57806333f707d1146100fa5780633af07ca614610123578063408f29251461014e5780635873533d14610177576100b5565b366100b55734600260008282546100ac9190611813565b92505081905550005b600080fd5b3480156100c657600080fd5b506100e160048036038101906100dc9190611436565b61025b565b6040516100f194939291906116c7565b60405180910390f35b34801561010657600080fd5b50610121600480360381019061011c9190611436565b6102b8565b005b34801561012f57600080fd5b5061013861040c565b604051610145919061170c565b60405180910390f35b34801561015a57600080fd5b506101756004803603810190610170919061140d565b610412565b005b610191600480360381019061018c9190611436565b610506565b005b34801561019f57600080fd5b506101ba60048036038101906101b59190611436565b61082b565b005b6101c4610a10565b6040516101d191906117e7565b60405180910390f35b3480156101e657600080fd5b506101ef610cc3565b6040516101fc91906116ac565b60405180910390f35b34801561021157600080fd5b5061021a610ce7565b60405161022791906117e7565b60405180910390f35b34801561023c57600080fd5b50610245610ced565b60405161025291906117e7565b60405180910390f35b60036020528060005260406000206000915090508060000160009054906101000a900473ffffffffffffffffffffffffffffffffffffffff16908060010154908060020154908060030160009054906101000a900460ff16905084565b60008054906101000a900473ffffffffffffffffffffffffffffffffffffffff1673ffffffffffffffffffffffffffffffffffffffff163373ffffffffffffffffffffffffffffffffffffffff1614610346576040517f08c379a000000000000000000000000000000000000000000000000000000000815260040161033d906117a7565b60405180910390fd5b80471015610389576040517f08c379a0000000000000000000000000000000000000000000000000000000008152600401610380906117c7565b60405180910390fd5b806002600082825461039b9190611988565b9250508190555060008054906101000a900473ffffffffffffffffffffffffffffffffffffffff1673ffffffffffffffffffffffffffffffffffffffff166108fc829081150290604051600060405180830381858888f19350505050158015610408573d6000803e3d6000fd5b5050565b60025481565b60008054906101000a900473ffffffffffffffffffffffffffffffffffffffff1673ffffffffffffffffffffffffffffffffffffffff163373ffffffffffffffffffffffffffffffffffffffff16146104a0576040517f08c379a0000000000000000000000000000000000000000000000000000000008152600401610497906117a7565b60405180910390fd5b60008161ffff161180156104b957506004548161ffff16105b6104f8576040517f08c379a00000000000000000000000000000000000000000000000000000000081526004016104ef90611767565b60405180910390fd5b8061ffff1660048190555050565b6000600360008381526020019081526020016000209050600580811115610556577f4e487b7100000000000000000000000000000000000000000000000000000000600052602160045260246000fd5b8160030160009054906101000a900460ff1660058111156105a0577f4e487b7100000000000000000000000000000000000000000000000000000000600052602160045260246000fd5b14156105e1576040517f08c379a00000000000000000000000000000000000000000000000000000000081526004016105d890611747565b60405180910390fd5b6004548210610625576040517f08c379a000000000000000000000000000000000000000000000000000000000815260040161061c90611767565b60405180910390fd5b600061063083610cf3565b90508082600201600082825461064691906118a7565b9250508190555060036005811115610687577f4e487b7100000000000000000000000000000000000000000000000000000000600052602160045260246000fd5b8260030160009054906101000a900460ff1660058111156106d1577f4e487b7100000000000000000000000000000000000000000000000000000000600052602160045260246000fd5b148061075e575060046005811115610712577f4e487b7100000000000000000000000000000000000000000000000000000000600052602160045260246000fd5b8260030160009054906101000a900460ff16600581111561075c577f4e487b7100000000000000000000000000000000000000000000000000000000600052602160045260246000fd5b145b156108265760058260030160006101000a81548160ff021916908360058111156107b1577f4e487b7100000000000000000000000000000000000000000000000000000000600052602160045260246000fd5b02179055508160000160009054906101000a900473ffffffffffffffffffffffffffffffffffffffff1673ffffffffffffffffffffffffffffffffffffffff166108fc83600201549081150290604051600060405180830381858888f19350505050158015610824573d6000803e3d6000fd5b505b505050565b60006003600083815260200190815260200160002090506004548210610886576040517f08c379a000000000000000000000000000000000000000000000000000000000815260040161087d90611767565b60405180910390fd5b6005808111156108bf577f4e487b7100000000000000000000000000000000000000000000000000000000600052602160045260246000fd5b8160030160009054906101000a900460ff166005811115610909577f4e487b7100000000000000000000000000000000000000000000000000000000600052602160045260246000fd5b141561094a576040517f08c379a000000000000000000000000000000000000000000000000000000000815260040161094190611747565b60405180910390fd5b60058160030160006101000a81548160ff02191690836005811115610998577f4e487b7100000000000000000000000000000000000000000000000000000000600052602160045260246000fd5b02179055508060000160009054906101000a900473ffffffffffffffffffffffffffffffffffffffff1673ffffffffffffffffffffffffffffffffffffffff166108fc82600201549081150290604051600060405180830381858888f19350505050158015610a0b573d6000803e3d6000fd5b505050565b60008060046000815480929190610a2690611ad3565b91905055905060006005811115610a66577f4e487b7100000000000000000000000000000000000000000000000000000000600052602160045260246000fd5b6003600083815260200190815260200160002060030160009054906101000a900460ff166005811115610ac2577f4e487b7100000000000000000000000000000000000000000000000000000000600052602160045260246000fd5b14610b02576040517f08c379a0000000000000000000000000000000000000000000000000000000008152600401610af990611787565b60405180910390fd5b600154341015610b47576040517f08c379a0000000000000000000000000000000000000000000000000000000008152600401610b3e90611727565b60405180910390fd5b600033905060405180608001604052808273ffffffffffffffffffffffffffffffffffffffff1681526020013481526020016000815260200160006005811115610bba577f4e487b7100000000000000000000000000000000000000000000000000000000600052602160045260246000fd5b8152506003600084815260200190815260200160002060008201518160000160006101000a81548173ffffffffffffffffffffffffffffffffffffffff021916908373ffffffffffffffffffffffffffffffffffffffff160217905550602082015181600101556040820151816002015560608201518160030160006101000a81548160ff02191690836005811115610c7c577f4e487b7100000000000000000000000000000000000000000000000000000000600052602160045260246000fd5b02179055509050507fbd19c47e9925eb6f7be8bb1c13a841e0240aaeaf17f217e90022e9c8eb66877f82604051610cb391906117e7565b60405180910390a1819250505090565b60008054906101000a900473ffffffffffffffffffffffffffffffffffffffff1681565b60015481565b60045481565b600080600360008481526020019081526020016000209050600580811115610d44577f4e487b7100000000000000000000000000000000000000000000000000000000600052602160045260246000fd5b8160030160009054906101000a900460ff166005811115610d8e577f4e487b7100000000000000000000000000000000000000000000000000000000600052602160045260246000fd5b1415610dcf576040517f08c379a0000000000000000000000000000000000000000000000000000000008152600401610dc690611747565b60405180910390fd5b600081600101549050600060644244600143610deb9190611a1c565b40604051602001610dfe9392919061166f565b6040516020818303038152906040528051906020012060001c610e219190611b30565b90506000806005811115610e5e577f4e487b7100000000000000000000000000000000000000000000000000000000600052602160045260246000fd5b8460030160009054906101000a900460ff166005811115610ea8577f4e487b7100000000000000000000000000000000000000000000000000000000600052602160045260246000fd5b1415611002576014821015610f175760038460030160006101000a81548160ff02191690836005811115610f05577f4e487b7100000000000000000000000000000000000000000000000000000000600052602160045260246000fd5b021790555060009450505050506113de565b6032821015610f4c57600a6028603384610f319190611b30565b610f3b91906118a7565b610f45919061192e565b9050610faa565b605a821015610f8157600a6064603384610f669190611b30565b610f7091906118a7565b610f7a919061192e565b9050610fa9565b600a60c8606584610f929190611b30565b610f9c91906118a7565b610fa6919061192e565b90505b5b60018460030160006101000a81548160ff02191690836005811115610ff8577f4e487b7100000000000000000000000000000000000000000000000000000000600052602160045260246000fd5b02179055506113be565b6001600581111561103c577f4e487b7100000000000000000000000000000000000000000000000000000000600052602160045260246000fd5b8460030160009054906101000a900460ff166005811115611086577f4e487b7100000000000000000000000000000000000000000000000000000000600052602160045260246000fd5b14156111e157601e8210156110f55760038460030160006101000a81548160ff021916908360058111156110e3577f4e487b7100000000000000000000000000000000000000000000000000000000600052602160045260246000fd5b021790555060009450505050506113de565b603c82101561112957600a8060298461110e9190611b30565b61111891906118a7565b611122919061192e565b9050611189565b605a82101561115e57600a60646033846111439190611b30565b61114d91906118a7565b611157919061192e565b9050611188565b600a61012c61012d846111719190611b30565b61117b91906118a7565b611185919061192e565b90505b5b60028460030160006101000a81548160ff021916908360058111156111d7577f4e487b7100000000000000000000000000000000000000000000000000000000600052602160045260246000fd5b02179055506113bd565b6002600581111561121b577f4e487b7100000000000000000000000000000000000000000000000000000000600052602160045260246000fd5b8460030160009054906101000a900460ff166005811115611265577f4e487b7100000000000000000000000000000000000000000000000000000000600052602160045260246000fd5b14156113bc5760288210156112d45760038460030160006101000a81548160ff021916908360058111156112c2577f4e487b7100000000000000000000000000000000000000000000000000000000600052602160045260246000fd5b021790555060009450505050506113de565b604682101561130857600a806029846112ed9190611b30565b6112f791906118a7565b611301919061192e565b9050611368565b605a82101561133d57600a60646033846113229190611b30565b61132c91906118a7565b611336919061192e565b9050611367565b600a61012c61012d846113509190611b30565b61135a91906118a7565b611364919061192e565b90505b5b60048460030160006101000a81548160ff021916908360058111156113b6577f4e487b7100000000000000000000000000000000000000000000000000000000600052602160045260246000fd5b02179055505b5b5b6103e881846113cd919061192e565b6113d791906118fd565b9450505050505b919050565b6000813590506113f281611c02565b92915050565b60008135905061140781611c19565b92915050565b60006020828403121561141f57600080fd5b600061142d848285016113e3565b91505092915050565b60006020828403121561144857600080fd5b6000611456848285016113f8565b91505092915050565b61146881611a50565b82525050565b61147f61147a82611a62565b611b1c565b82525050565b61148e81611ac1565b82525050565b61149d81611a7f565b82525050565b60006114b0603a83611802565b91507f506c656173652073656e64206d6f7265207468616e2064656661756c74206d6960008301527f6e696d756d2062657420746f206a6f696e207468652067616d650000000000006020830152604082019050919050565b6000611516600a83611802565b91507f47616d6520456e646564000000000000000000000000000000000000000000006000830152602082019050919050565b6000611556600f83611802565b91507f496e76616c69642067616d6520494400000000000000000000000000000000006000830152602082019050919050565b6000611596601e83611802565b91507f6372656174652067616d65202d2067616d65207374617465206572726f7200006000830152602082019050919050565b60006115d6602083611802565b91507f4f776e61626c653a2063616c6c6572206973206e6f7420746865206f776e65726000830152602082019050919050565b6000611616601d83611802565b91507f496e73756666696369656e7420636f6e74726163742062616c616e63650000006000830152602082019050919050565b61165281611ab7565b82525050565b61166961166482611ab7565b611b26565b82525050565b600061167b8286611658565b60208201915061168b8285611658565b60208201915061169b828461146e565b602082019150819050949350505050565b60006020820190506116c1600083018461145f565b92915050565b60006080820190506116dc600083018761145f565b6116e96020830186611649565b6116f66040830185611649565b6117036060830184611485565b95945050505050565b60006020820190506117216000830184611494565b92915050565b60006020820190508181036000830152611740816114a3565b9050919050565b6000602082019050818103600083015261176081611509565b9050919050565b6000602082019050818103600083015261178081611549565b9050919050565b600060208201905081810360008301526117a081611589565b9050919050565b600060208201905081810360008301526117c0816115c9565b9050919050565b600060208201905081810360008301526117e081611609565b9050919050565b60006020820190506117fc6000830184611649565b92915050565b600082825260208201905092915050565b600061181e82611a7f565b915061182983611a7f565b9250817f7fffffffffffffffffffffffffffffffffffffffffffffffffffffffffffffff0383136000831215161561186457611863611b61565b5b817f800000000000000000000000000000000000000000000000000000000000000003831260008312161561189c5761189b611b61565b5b828201905092915050565b60006118b282611ab7565b91506118bd83611ab7565b9250827fffffffffffffffffffffffffffffffffffffffffffffffffffffffffffffffff038211156118f2576118f1611b61565b5b828201905092915050565b600061190882611ab7565b915061191383611ab7565b92508261192357611922611b90565b5b828204905092915050565b600061193982611ab7565b915061194483611ab7565b9250817fffffffffffffffffffffffffffffffffffffffffffffffffffffffffffffffff048311821515161561197d5761197c611b61565b5b828202905092915050565b600061199382611a7f565b915061199e83611a7f565b9250827f8000000000000000000000000000000000000000000000000000000000000000018212600084121516156119d9576119d8611b61565b5b827f7fffffffffffffffffffffffffffffffffffffffffffffffffffffffffffffff018213600084121615611a1157611a10611b61565b5b828203905092915050565b6000611a2782611ab7565b9150611a3283611ab7565b925082821015611a4557611a44611b61565b5b828203905092915050565b6000611a5b82611a97565b9050919050565b6000819050919050565b6000819050611a7a82611bee565b919050565b6000819050919050565b600061ffff82169050919050565b600073ffffffffffffffffffffffffffffffffffffffff82169050919050565b6000819050919050565b6000611acc82611a6c565b9050919050565b6000611ade82611ab7565b91507fffffffffffffffffffffffffffffffffffffffffffffffffffffffffffffffff821415611b1157611b10611b61565b5b600182019050919050565b6000819050919050565b6000819050919050565b6000611b3b82611ab7565b9150611b4683611ab7565b925082611b5657611b55611b90565b5b828206905092915050565b7f4e487b7100000000000000000000000000000000000000000000000000000000600052601160045260246000fd5b7f4e487b7100000000000000000000000000000000000000000000000000000000600052601260045260246000fd5b7f4e487b7100000000000000000000000000000000000000000000000000000000600052602160045260246000fd5b60068110611bff57611bfe611bbf565b5b50565b611c0b81611a89565b8114611c1657600080fd5b50565b611c2281611ab7565b8114611c2d57600080fd5b5056fea264697066735822122091cf8ff55495ff6992bc1c06981a3e550ee3591e485b7584424eb6d82f0f661964736f6c63430008000033",
  "linkReferences": {},
  "deployedLinkReferences": {}
}