{
  "_format": "hh-sol-artifact-1",
  "contractName": "IncreaseOrStay",
  "sourceName": "contracts/IncreaseOrStay.sol",
  "abi": [
    {
      "inputs": [
        {
          "internalType": "uint256",
          "name": "_defaultMinBet",
          "type": "uint256"
        }
      ],
      "stateMutability": "payable",
      "type": "constructor"
    },
    {
      "anonymous": false,
      "inputs": [
        {
          "indexed": false,
          "internalType": "uint256",
          "name": "gameId",
          "type": "uint256"
        }
      ],
      "name": "GameCreated",
      "type": "event"
    },
    {
      "inputs": [
        {
          "internalType": "uint256",
          "name": "gameId",
          "type": "uint256"
        }
      ],
      "name": "Withdraw",
      "outputs": [],
      "stateMutability": "nonpayable",
      "type": "function"
    },
    {
      "inputs": [],
      "name": "createGame",
      "outputs": [
        {
          "internalType": "uint256",
          "name": "",
          "type": "uint256"
        }
      ],
      "stateMutability": "payable",
      "type": "function"
    },
    {
      "inputs": [],
      "name": "defaultMinBet",
      "outputs": [
        {
          "internalType": "uint256",
          "name": "",
          "type": "uint256"
        }
      ],
      "stateMutability": "view",
      "type": "function"
    },
    {
      "inputs": [
        {
          "internalType": "uint256",
          "name": "",
          "type": "uint256"
        }
      ],
      "name": "games",
      "outputs": [
        {
          "internalType": "address payable",
          "name": "player",
          "type": "address"
        },
        {
          "internalType": "uint256",
          "name": "playerBet",
          "type": "uint256"
        },
        {
          "internalType": "uint256",
          "name": "reward",
          "type": "uint256"
        },
        {
          "internalType": "enum IncreaseOrStay.GameState",
          "name": "currentState",
          "type": "uint8"
        }
      ],
      "stateMutability": "view",
      "type": "function"
    },
    {
      "inputs": [],
      "name": "nextGameId",
      "outputs": [
        {
          "internalType": "uint256",
          "name": "",
          "type": "uint256"
        }
      ],
      "stateMutability": "view",
      "type": "function"
    },
    {
      "inputs": [],
      "name": "owner",
      "outputs": [
        {
          "internalType": "address payable",
          "name": "",
          "type": "address"
        }
      ],
      "stateMutability": "view",
      "type": "function"
    },
    {
      "inputs": [
        {
          "internalType": "uint256",
          "name": "amount",
          "type": "uint256"
        }
      ],
      "name": "ownerWithdraw",
      "outputs": [],
      "stateMutability": "nonpayable",
      "type": "function"
    },
    {
      "inputs": [
        {
          "internalType": "uint256",
          "name": "gameId",
          "type": "uint256"
        }
      ],
      "name": "playGame",
      "outputs": [],
      "stateMutability": "payable",
      "type": "function"
    },
    {
      "inputs": [
        {
          "internalType": "uint16",
          "name": "_nextGameId",
          "type": "uint16"
        }
      ],
      "name": "setNextGameId",
      "outputs": [],
      "stateMutability": "nonpayable",
      "type": "function"
    },
    {
      "inputs": [],
      "name": "unclaimedBalance",
      "outputs": [
        {
          "internalType": "int256",
          "name": "",
          "type": "int256"
        }
      ],
      "stateMutability": "view",
      "type": "function"
    },
    {
      "stateMutability": "payable",
      "type": "receive"
    }
  ],
  "bytecode": "0x60806040526001600555604051620021813803806200218183398181016040528101906200002e91906200009c565b600160008190555033600160006101000a81548173ffffffffffffffffffffffffffffffffffffffff021916908373ffffffffffffffffffffffffffffffffffffffff1602179055508060028190555050620000ec565b6000815190506200009681620000d2565b92915050565b600060208284031215620000af57600080fd5b6000620000bf8482850162000085565b91505092915050565b6000819050919050565b620000dd81620000c8565b8114620000e957600080fd5b50565b61208580620000fc6000396000f3fe6080604052600436106100955760003560e01c80635b6b431d116100595780635b6b431d146101935780637255d729146101bc5780638da5cb5b146101da57806396e1490814610205578063b135bbb014610230576100b5565b8063117a5b90146100ba57806333f707d1146100fa5780633af07ca614610123578063408f29251461014e5780635873533d14610177576100b5565b366100b55734600360008282546100ac9190611c32565b92505081905550005b600080fd5b3480156100c657600080fd5b506100e160048036038101906100dc91906116d2565b61025b565b6040516100f19493929190611a86565b60405180910390f35b34801561010657600080fd5b50610121600480360381019061011c91906116d2565b6102b8565b005b34801561012f57600080fd5b50610138610410565b6040516101459190611acb565b60405180910390f35b34801561015a57600080fd5b50610175600480360381019061017091906116a9565b610416565b005b610191600480360381019061018c91906116d2565b61050c565b005b34801561019f57600080fd5b506101ba60048036038101906101b591906116d2565b6108b1565b005b6101c4610b38565b6040516101d19190611c06565b60405180910390f35b3480156101e657600080fd5b506101ef610e40565b6040516101fc9190611a6b565b60405180910390f35b34801561021157600080fd5b5061021a610e66565b6040516102279190611c06565b60405180910390f35b34801561023c57600080fd5b50610245610e6c565b6040516102529190611c06565b60405180910390f35b60046020528060005260406000206000915090508060000160009054906101000a900473ffffffffffffffffffffffffffffffffffffffff16908060010154908060020154908060030160009054906101000a900460ff16905084565b600160009054906101000a900473ffffffffffffffffffffffffffffffffffffffff1673ffffffffffffffffffffffffffffffffffffffff163373ffffffffffffffffffffffffffffffffffffffff1614610348576040517f08c379a000000000000000000000000000000000000000000000000000000000815260040161033f90611b86565b60405180910390fd5b8047101561038b576040517f08c379a000000000000000000000000000000000000000000000000000000000815260040161038290611bc6565b60405180910390fd5b806003600082825461039d9190611da7565b92505081905550600160009054906101000a900473ffffffffffffffffffffffffffffffffffffffff1673ffffffffffffffffffffffffffffffffffffffff166108fc829081150290604051600060405180830381858888f1935050505015801561040c573d6000803e3d6000fd5b5050565b60035481565b600160009054906101000a900473ffffffffffffffffffffffffffffffffffffffff1673ffffffffffffffffffffffffffffffffffffffff163373ffffffffffffffffffffffffffffffffffffffff16146104a6576040517f08c379a000000000000000000000000000000000000000000000000000000000815260040161049d90611b86565b60405180910390fd5b60008161ffff161180156104bf57506005548161ffff16105b6104fe576040517f08c379a00000000000000000000000000000000000000000000000000000000081526004016104f590611b26565b60405180910390fd5b8061ffff1660058190555050565b600060046000838152602001908152602001600020905060058081111561055c577f4e487b7100000000000000000000000000000000000000000000000000000000600052602160045260246000fd5b8160030160009054906101000a900460ff1660058111156105a6577f4e487b7100000000000000000000000000000000000000000000000000000000600052602160045260246000fd5b14156105e7576040517f08c379a00000000000000000000000000000000000000000000000000000000081526004016105de90611b06565b60405180910390fd5b600554821061062b576040517f08c379a000000000000000000000000000000000000000000000000000000000815260040161062290611b26565b60405180910390fd5b8060000160009054906101000a900473ffffffffffffffffffffffffffffffffffffffff1673ffffffffffffffffffffffffffffffffffffffff163373ffffffffffffffffffffffffffffffffffffffff16146106bd576040517f08c379a00000000000000000000000000000000000000000000000000000000081526004016106b490611be6565b60405180910390fd5b60006106c883610e72565b90508082600201819055506003600581111561070d577f4e487b7100000000000000000000000000000000000000000000000000000000600052602160045260246000fd5b8260030160009054906101000a900460ff166005811115610757577f4e487b7100000000000000000000000000000000000000000000000000000000600052602160045260246000fd5b14806107e4575060046005811115610798577f4e487b7100000000000000000000000000000000000000000000000000000000600052602160045260246000fd5b8260030160009054906101000a900460ff1660058111156107e2577f4e487b7100000000000000000000000000000000000000000000000000000000600052602160045260246000fd5b145b156108ac5760058260030160006101000a81548160ff02191690836005811115610837577f4e487b7100000000000000000000000000000000000000000000000000000000600052602160045260246000fd5b02179055508160000160009054906101000a900473ffffffffffffffffffffffffffffffffffffffff1673ffffffffffffffffffffffffffffffffffffffff166108fc83600201549081150290604051600060405180830381858888f193505050501580156108aa573d6000803e3d6000fd5b505b505050565b6108b9611625565b60006004600083815260200190815260200160002090506005548210610914576040517f08c379a000000000000000000000000000000000000000000000000000000000815260040161090b90611b26565b60405180910390fd5b60058081111561094d577f4e487b7100000000000000000000000000000000000000000000000000000000600052602160045260246000fd5b8160030160009054906101000a900460ff166005811115610997577f4e487b7100000000000000000000000000000000000000000000000000000000600052602160045260246000fd5b14156109d8576040517f08c379a00000000000000000000000000000000000000000000000000000000081526004016109cf90611b06565b60405180910390fd5b8060000160009054906101000a900473ffffffffffffffffffffffffffffffffffffffff1673ffffffffffffffffffffffffffffffffffffffff163373ffffffffffffffffffffffffffffffffffffffff1614610a6a576040517f08c379a0000000000000000000000000000000000000000000000000000000008152600401610a6190611be6565b60405180910390fd5b60058160030160006101000a81548160ff02191690836005811115610ab8577f4e487b7100000000000000000000000000000000000000000000000000000000600052602160045260246000fd5b02179055508060000160009054906101000a900473ffffffffffffffffffffffffffffffffffffffff1673ffffffffffffffffffffffffffffffffffffffff166108fc82600201549081150290604051600060405180830381858888f19350505050158015610b2b573d6000803e3d6000fd5b5050610b35611675565b50565b60008060056000815480929190610b4e90611ef2565b91905055905060006005811115610b8e577f4e487b7100000000000000000000000000000000000000000000000000000000600052602160045260246000fd5b6004600083815260200190815260200160002060030160009054906101000a900460ff166005811115610bea577f4e487b7100000000000000000000000000000000000000000000000000000000600052602160045260246000fd5b14610c2a576040517f08c379a0000000000000000000000000000000000000000000000000000000008152600401610c2190611b46565b60405180910390fd5b600254341015610c6f576040517f08c379a0000000000000000000000000000000000000000000000000000000008152600401610c6690611ae6565b60405180910390fd5b6000600a34610c7e9190611d4d565b905047811115610cc3576040517f08c379a0000000000000000000000000000000000000000000000000000000008152600401610cba90611b66565b60405180910390fd5b600033905060405180608001604052808273ffffffffffffffffffffffffffffffffffffffff1681526020013481526020016000815260200160006005811115610d36577f4e487b7100000000000000000000000000000000000000000000000000000000600052602160045260246000fd5b8152506004600085815260200190815260200160002060008201518160000160006101000a81548173ffffffffffffffffffffffffffffffffffffffff021916908373ffffffffffffffffffffffffffffffffffffffff160217905550602082015181600101556040820151816002015560608201518160030160006101000a81548160ff02191690836005811115610df8577f4e487b7100000000000000000000000000000000000000000000000000000000600052602160045260246000fd5b02179055509050507fbd19c47e9925eb6f7be8bb1c13a841e0240aaeaf17f217e90022e9c8eb66877f83604051610e2f9190611c06565b60405180910390a182935050505090565b600160009054906101000a900473ffffffffffffffffffffffffffffffffffffffff1681565b60025481565b60055481565b600080600460008481526020019081526020016000209050600580811115610ec3577f4e487b7100000000000000000000000000000000000000000000000000000000600052602160045260246000fd5b8160030160009054906101000a900460ff166005811115610f0d577f4e487b7100000000000000000000000000000000000000000000000000000000600052602160045260246000fd5b1415610f4e576040517f08c379a0000000000000000000000000000000000000000000000000000000008152600401610f4590611b06565b60405180910390fd5b6000816001015490506000600143610f669190611e3b565b404243604051602001610f7b939291906119f1565b604051602081830303815290604052805190602001209050600060654244600143610fa69190611e3b565b40604051602001610fb993929190611a2e565b6040516020818303038152906040528051906020012060001c610fdc9190611f4f565b90506000806103e98460001c610ff29190611f4f565b90506000600581111561102e577f4e487b7100000000000000000000000000000000000000000000000000000000600052602160045260246000fd5b8660030160009054906101000a900460ff166005811115611078577f4e487b7100000000000000000000000000000000000000000000000000000000600052602160045260246000fd5b14156112005760148310156110e95760038660030160006101000a81548160ff021916908360058111156110d5577f4e487b7100000000000000000000000000000000000000000000000000000000600052602160045260246000fd5b021790555060009650505050505050611620565b60328310156111185760006103e882836111039190611d4d565b61110d9190611d1c565b9050809250506111a8565b6050831015611160576000620f42408283846111349190611d4d565b61113e9190611d4d565b6111489190611d1c565b90506103e8816111589190611cc6565b9250506111a7565b6000633b9aca00828384856111759190611d4d565b61117f9190611d4d565b6111899190611d4d565b6111939190611d1c565b9050806107d06111a39190611cc6565b9250505b5b60018660030160006101000a81548160ff021916908360058111156111f6577f4e487b7100000000000000000000000000000000000000000000000000000000600052602160045260246000fd5b02179055506115fe565b6001600581111561123a577f4e487b7100000000000000000000000000000000000000000000000000000000600052602160045260246000fd5b8660030160009054906101000a900460ff166005811115611284577f4e487b7100000000000000000000000000000000000000000000000000000000600052602160045260246000fd5b14156114005760148310156112f55760038660030160006101000a81548160ff021916908360058111156112e1577f4e487b7100000000000000000000000000000000000000000000000000000000600052602160045260246000fd5b021790555060009650505050505050611620565b60328310156113245760006103e8828361130f9190611d4d565b6113199190611d1c565b9050809250506113a8565b60508310156113605760006103e8828361133e9190611d4d565b6113489190611d1c565b90506103e8816113589190611cc6565b9250506113a7565b6000620f42408283846113739190611d4d565b61137d9190611d4d565b6113879190611d1c565b90506107d06004826113999190611d4d565b6113a39190611cc6565b9250505b5b60028660030160006101000a81548160ff021916908360058111156113f6577f4e487b7100000000000000000000000000000000000000000000000000000000600052602160045260246000fd5b02179055506115fd565b6002600581111561143a577f4e487b7100000000000000000000000000000000000000000000000000000000600052602160045260246000fd5b8660030160009054906101000a900460ff166005811115611484577f4e487b7100000000000000000000000000000000000000000000000000000000600052602160045260246000fd5b14156115fc5760148310156114f55760038660030160006101000a81548160ff021916908360058111156114e1577f4e487b7100000000000000000000000000000000000000000000000000000000600052602160045260246000fd5b021790555060009650505050505050611620565b60328310156115245760006103e8828361150f9190611d4d565b6115199190611d1c565b9050809250506115a8565b60508310156115605760006103e8828361153e9190611d4d565b6115489190611d1c565b90506103e8816115589190611cc6565b9250506115a7565b6000620f42408283846115739190611d4d565b61157d9190611d4d565b6115879190611d1c565b90506107d06008826115999190611d4d565b6115a39190611cc6565b9250505b5b60048660030160006101000a81548160ff021916908360058111156115f6577f4e487b7100000000000000000000000000000000000000000000000000000000600052602160045260246000fd5b02179055505b5b5b6103e8828661160d9190611d4d565b6116179190611d1c565b96505050505050505b919050565b6002600054141561166b576040517f08c379a000000000000000000000000000000000000000000000000000000000815260040161166290611ba6565b60405180910390fd5b6002600081905550565b6001600081905550565b60008135905061168e81612021565b92915050565b6000813590506116a381612038565b92915050565b6000602082840312156116bb57600080fd5b60006116c98482850161167f565b91505092915050565b6000602082840312156116e457600080fd5b60006116f284828501611694565b91505092915050565b61170481611e6f565b82525050565b61171b61171682611e81565b611f3b565b82525050565b61172a81611ee0565b82525050565b61173981611e9e565b82525050565b600061174c603a83611c21565b91507f506c656173652073656e64206d6f7265207468616e2064656661756c74206d6960008301527f6e696d756d2062657420746f206a6f696e207468652067616d650000000000006020830152604082019050919050565b60006117b2600a83611c21565b91507f47616d6520456e646564000000000000000000000000000000000000000000006000830152602082019050919050565b60006117f2600f83611c21565b91507f496e76616c69642067616d6520494400000000000000000000000000000000006000830152602082019050919050565b6000611832601e83611c21565b91507f6372656174652067616d65202d2067616d65207374617465206572726f7200006000830152602082019050919050565b6000611872602383611c21565b91507f436f6e747261637420646f6573206e6f74206861766520656e6f75676820457460008301527f68657200000000000000000000000000000000000000000000000000000000006020830152604082019050919050565b60006118d8602083611c21565b91507f4f776e61626c653a2063616c6c6572206973206e6f7420746865206f776e65726000830152602082019050919050565b6000611918601f83611c21565b91507f5265656e7472616e637947756172643a207265656e7472616e742063616c6c006000830152602082019050919050565b6000611958601d83611c21565b91507f496e73756666696369656e7420636f6e74726163742062616c616e63650000006000830152602082019050919050565b6000611998601383611c21565b91507f4e6f74207468652053616d6520506c61796572000000000000000000000000006000830152602082019050919050565b6119d481611ed6565b82525050565b6119eb6119e682611ed6565b611f45565b82525050565b60006119fd828661170a565b602082019150611a0d82856119da565b602082019150611a1d82846119da565b602082019150819050949350505050565b6000611a3a82866119da565b602082019150611a4a82856119da565b602082019150611a5a828461170a565b602082019150819050949350505050565b6000602082019050611a8060008301846116fb565b92915050565b6000608082019050611a9b60008301876116fb565b611aa860208301866119cb565b611ab560408301856119cb565b611ac26060830184611721565b95945050505050565b6000602082019050611ae06000830184611730565b92915050565b60006020820190508181036000830152611aff8161173f565b9050919050565b60006020820190508181036000830152611b1f816117a5565b9050919050565b60006020820190508181036000830152611b3f816117e5565b9050919050565b60006020820190508181036000830152611b5f81611825565b9050919050565b60006020820190508181036000830152611b7f81611865565b9050919050565b60006020820190508181036000830152611b9f816118cb565b9050919050565b60006020820190508181036000830152611bbf8161190b565b9050919050565b60006020820190508181036000830152611bdf8161194b565b9050919050565b60006020820190508181036000830152611bff8161198b565b9050919050565b6000602082019050611c1b60008301846119cb565b92915050565b600082825260208201905092915050565b6000611c3d82611e9e565b9150611c4883611e9e565b9250817f7fffffffffffffffffffffffffffffffffffffffffffffffffffffffffffffff03831360008312151615611c8357611c82611f80565b5b817f8000000000000000000000000000000000000000000000000000000000000000038312600083121615611cbb57611cba611f80565b5b828201905092915050565b6000611cd182611ed6565b9150611cdc83611ed6565b9250827fffffffffffffffffffffffffffffffffffffffffffffffffffffffffffffffff03821115611d1157611d10611f80565b5b828201905092915050565b6000611d2782611ed6565b9150611d3283611ed6565b925082611d4257611d41611faf565b5b828204905092915050565b6000611d5882611ed6565b9150611d6383611ed6565b9250817fffffffffffffffffffffffffffffffffffffffffffffffffffffffffffffffff0483118215151615611d9c57611d9b611f80565b5b828202905092915050565b6000611db282611e9e565b9150611dbd83611e9e565b9250827f800000000000000000000000000000000000000000000000000000000000000001821260008412151615611df857611df7611f80565b5b827f7fffffffffffffffffffffffffffffffffffffffffffffffffffffffffffffff018213600084121615611e3057611e2f611f80565b5b828203905092915050565b6000611e4682611ed6565b9150611e5183611ed6565b925082821015611e6457611e63611f80565b5b828203905092915050565b6000611e7a82611eb6565b9050919050565b6000819050919050565b6000819050611e998261200d565b919050565b6000819050919050565b600061ffff82169050919050565b600073ffffffffffffffffffffffffffffffffffffffff82169050919050565b6000819050919050565b6000611eeb82611e8b565b9050919050565b6000611efd82611ed6565b91507fffffffffffffffffffffffffffffffffffffffffffffffffffffffffffffffff821415611f3057611f2f611f80565b5b600182019050919050565b6000819050919050565b6000819050919050565b6000611f5a82611ed6565b9150611f6583611ed6565b925082611f7557611f74611faf565b5b828206905092915050565b7f4e487b7100000000000000000000000000000000000000000000000000000000600052601160045260246000fd5b7f4e487b7100000000000000000000000000000000000000000000000000000000600052601260045260246000fd5b7f4e487b7100000000000000000000000000000000000000000000000000000000600052602160045260246000fd5b6006811061201e5761201d611fde565b5b50565b61202a81611ea8565b811461203557600080fd5b50565b61204181611ed6565b811461204c57600080fd5b5056fea2646970667358221220be43b4534aa2435d771fd34e34724e5e15c56da4e225b9f13c9bcd7175ec120864736f6c63430008000033",
  "linkReferences": {},
  "deployedLinkReferences": {}
}